{
  "contractName": "ProductManagement",
  "abi": [
    {
      "constant": true,
      "inputs": [
        {
          "name": "",
          "type": "bytes32"
        }
      ],
      "name": "products",
      "outputs": [
        {
          "name": "manufacturer",
          "type": "address"
        },
        {
          "name": "serial_number",
          "type": "string"
        },
        {
          "name": "product_type",
          "type": "string"
        },
        {
          "name": "creation_date",
          "type": "string"
        }
      ],
      "payable": false,
      "stateMutability": "view",
      "type": "function",
      "signature": "0x79054391"
    },
    {
      "constant": true,
      "inputs": [
        {
          "name": "",
          "type": "bytes32"
        }
      ],
      "name": "parts",
      "outputs": [
        {
          "name": "manufacturer",
          "type": "address"
        },
        {
          "name": "serial_number",
          "type": "string"
        },
        {
          "name": "part_type",
          "type": "string"
        },
        {
          "name": "creation_date",
          "type": "string"
        },
        {
          "name": "expiry_date",
          "type": "string"
        },
        {
          "name": "product_price",
          "type": "string"
        }
      ],
      "payable": false,
      "stateMutability": "view",
      "type": "function",
      "signature": "0x8c431b9f"
    },
    {
      "inputs": [],
      "payable": false,
      "stateMutability": "nonpayable",
      "type": "constructor",
      "signature": "constructor"
    },
    {
      "constant": false,
      "inputs": [
        {
          "name": "serial_number",
          "type": "string"
        },
        {
          "name": "part_type",
          "type": "string"
        },
        {
          "name": "creation_date",
          "type": "string"
        },
        {
          "name": "expiry_date",
          "type": "string"
        },
        {
          "name": "product_price",
          "type": "string"
        }
      ],
      "name": "buildPart",
      "outputs": [
        {
          "name": "",
          "type": "bytes32"
        }
      ],
      "payable": false,
      "stateMutability": "nonpayable",
      "type": "function",
      "signature": "0xfe34b02d"
    },
    {
      "constant": false,
      "inputs": [
        {
          "name": "serial_number",
          "type": "string"
        },
        {
          "name": "product_type",
          "type": "string"
        },
        {
          "name": "creation_date",
          "type": "string"
        },
        {
          "name": "part_array",
          "type": "bytes32[6]"
        }
      ],
      "name": "buildProduct",
      "outputs": [
        {
          "name": "",
          "type": "bytes32"
        }
      ],
      "payable": false,
      "stateMutability": "nonpayable",
      "type": "function",
      "signature": "0xd2af2aec"
    },
    {
      "constant": false,
      "inputs": [
        {
          "name": "product_hash",
          "type": "bytes32"
        }
      ],
      "name": "getParts",
      "outputs": [
        {
          "name": "",
          "type": "bytes32[6]"
        }
      ],
      "payable": false,
      "stateMutability": "nonpayable",
      "type": "function",
      "signature": "0x6e730329"
    }
  ],
  "bytecode": "0x608060405234801561001057600080fd5b50611dbd806100206000396000f3fe60806040526004361061006d576000357c0100000000000000000000000000000000000000000000000000000000900463ffffffff1680636e7303291461007257806379054391146100e95780638c431b9f146102a8578063d2af2aec1461053f578063fe34b02d1461078b575b600080fd5b34801561007e57600080fd5b506100ab6004803603602081101561009557600080fd5b8101908080359060200190929190505050610ac3565b6040518082600660200280838360005b838110156100d65780820151818401526020810190506100bb565b5050505090500191505060405180910390f35b3480156100f557600080fd5b506101226004803603602081101561010c57600080fd5b8101908080359060200190929190505050610bff565b604051808573ffffffffffffffffffffffffffffffffffffffff1673ffffffffffffffffffffffffffffffffffffffff168152602001806020018060200180602001848103845287818151815260200191508051906020019080838360005b8381101561019c578082015181840152602081019050610181565b50505050905090810190601f1680156101c95780820380516001836020036101000a031916815260200191505b50848103835286818151815260200191508051906020019080838360005b838110156102025780820151818401526020810190506101e7565b50505050905090810190601f16801561022f5780820380516001836020036101000a031916815260200191505b50848103825285818151815260200191508051906020019080838360005b8381101561026857808201518184015260208101905061024d565b50505050905090810190601f1680156102955780820380516001836020036101000a031916815260200191505b5097505050505050505060405180910390f35b3480156102b457600080fd5b506102e1600480360360208110156102cb57600080fd5b8101908080359060200190929190505050610e17565b604051808773ffffffffffffffffffffffffffffffffffffffff1673ffffffffffffffffffffffffffffffffffffffff168152602001806020018060200180602001806020018060200186810386528b818151815260200191508051906020019080838360005b83811015610363578082015181840152602081019050610348565b50505050905090810190601f1680156103905780820380516001836020036101000a031916815260200191505b5086810385528a818151815260200191508051906020019080838360005b838110156103c95780820151818401526020810190506103ae565b50505050905090810190601f1680156103f65780820380516001836020036101000a031916815260200191505b50868103845289818151815260200191508051906020019080838360005b8381101561042f578082015181840152602081019050610414565b50505050905090810190601f16801561045c5780820380516001836020036101000a031916815260200191505b50868103835288818151815260200191508051906020019080838360005b8381101561049557808201518184015260208101905061047a565b50505050905090810190601f1680156104c25780820380516001836020036101000a031916815260200191505b50868103825287818151815260200191508051906020019080838360005b838110156104fb5780820151818401526020810190506104e0565b50505050905090810190601f1680156105285780820380516001836020036101000a031916815260200191505b509b50505050505050505050505060405180910390f35b34801561054b57600080fd5b50610775600480360361012081101561056357600080fd5b810190808035906020019064010000000081111561058057600080fd5b82018360208201111561059257600080fd5b803590602001918460018302840111640100000000831117156105b457600080fd5b91908080601f016020809104026020016040519081016040528093929190818152602001838380828437600081840152601f19601f8201169050808301925050505050505091929192908035906020019064010000000081111561061757600080fd5b82018360208201111561062957600080fd5b8035906020019184600183028401116401000000008311171561064b57600080fd5b91908080601f016020809104026020016040519081016040528093929190818152602001838380828437600081840152601f19601f820116905080830192505050505050509192919290803590602001906401000000008111156106ae57600080fd5b8201836020820111156106c057600080fd5b803590602001918460018302840111640100000000831117156106e257600080fd5b91908080601f016020809104026020016040519081016040528093929190818152602001838380828437600081840152601f19601f8201169050808301925050505050505091929192908060c001906006806020026040519081016040528092919082600660200280828437600081840152601f19601f820116905080830192505050505050919291929050505061116b565b6040518082815260200191505060405180910390f35b34801561079757600080fd5b50610aad600480360360a08110156107ae57600080fd5b81019080803590602001906401000000008111156107cb57600080fd5b8201836020820111156107dd57600080fd5b803590602001918460018302840111640100000000831117156107ff57600080fd5b91908080601f016020809104026020016040519081016040528093929190818152602001838380828437600081840152601f19601f8201169050808301925050505050505091929192908035906020019064010000000081111561086257600080fd5b82018360208201111561087457600080fd5b8035906020019184600183028401116401000000008311171561089657600080fd5b91908080601f016020809104026020016040519081016040528093929190818152602001838380828437600081840152601f19601f820116905080830192505050505050509192919290803590602001906401000000008111156108f957600080fd5b82018360208201111561090b57600080fd5b8035906020019184600183028401116401000000008311171561092d57600080fd5b91908080601f016020809104026020016040519081016040528093929190818152602001838380828437600081840152601f19601f8201169050808301925050505050505091929192908035906020019064010000000081111561099057600080fd5b8201836020820111156109a257600080fd5b803590602001918460018302840111640100000000831117156109c457600080fd5b91908080601f016020809104026020016040519081016040528093929190818152602001838380828437600081840152601f19601f82011690508083019250505050505050919291929080359060200190640100000000811115610a2757600080fd5b820183602082011115610a3957600080fd5b80359060200191846001830284011164010000000083111715610a5b57600080fd5b91908080601f016020809104026020016040519081016040528093929190818152602001838380828437600081840152601f19601f8201169050808301925050505050505091929192905050506114a4565b6040518082815260200191505060405180910390f35b610acb611ba7565b600073ffffffffffffffffffffffffffffffffffffffff166001600084815260200190815260200160002060000160009054906101000a900473ffffffffffffffffffffffffffffffffffffffff1673ffffffffffffffffffffffffffffffffffffffff1614151515610ba6576040517f08c379a00000000000000000000000000000000000000000000000000000000081526004018080602001828103825260128152602001807f50726f6475637420696e6578697374656e74000000000000000000000000000081525060200191505060405180910390fd5b60016000838152602001908152602001600020600401600680602002604051908101604052809291908260068015610bf3576020028201915b815481526020019060010190808311610bdf575b50505050509050919050565b60016020528060005260406000206000915090508060000160009054906101000a900473ffffffffffffffffffffffffffffffffffffffff1690806001018054600181600116156101000203166002900480601f016020809104026020016040519081016040528092919081815260200182805460018160011615610100020316600290048015610cd15780601f10610ca657610100808354040283529160200191610cd1565b820191906000526020600020905b815481529060010190602001808311610cb457829003601f168201915b505050505090806002018054600181600116156101000203166002900480601f016020809104026020016040519081016040528092919081815260200182805460018160011615610100020316600290048015610d6f5780601f10610d4457610100808354040283529160200191610d6f565b820191906000526020600020905b815481529060010190602001808311610d5257829003601f168201915b505050505090806003018054600181600116156101000203166002900480601f016020809104026020016040519081016040528092919081815260200182805460018160011615610100020316600290048015610e0d5780601f10610de257610100808354040283529160200191610e0d565b820191906000526020600020905b815481529060010190602001808311610df057829003601f168201915b5050505050905084565b60006020528060005260406000206000915090508060000160009054906101000a900473ffffffffffffffffffffffffffffffffffffffff1690806001018054600181600116156101000203166002900480601f016020809104026020016040519081016040528092919081815260200182805460018160011615610100020316600290048015610ee95780601f10610ebe57610100808354040283529160200191610ee9565b820191906000526020600020905b815481529060010190602001808311610ecc57829003601f168201915b505050505090806002018054600181600116156101000203166002900480601f016020809104026020016040519081016040528092919081815260200182805460018160011615610100020316600290048015610f875780601f10610f5c57610100808354040283529160200191610f87565b820191906000526020600020905b815481529060010190602001808311610f6a57829003601f168201915b505050505090806003018054600181600116156101000203166002900480601f0160208091040260200160405190810160405280929190818152602001828054600181600116156101000203166002900480156110255780601f10610ffa57610100808354040283529160200191611025565b820191906000526020600020905b81548152906001019060200180831161100857829003601f168201915b505050505090806004018054600181600116156101000203166002900480601f0160208091040260200160405190810160405280929190818152602001828054600181600116156101000203166002900480156110c35780601f10611098576101008083540402835291602001916110c3565b820191906000526020600020905b8154815290600101906020018083116110a657829003601f168201915b505050505090806005018054600181600116156101000203166002900480601f0160208091040260200160405190810160405280929190818152602001828054600181600116156101000203166002900480156111615780601f1061113657610100808354040283529160200191611161565b820191906000526020600020905b81548152906001019060200180831161114457829003601f168201915b5050505050905086565b600080600090505b600681101561127557600073ffffffffffffffffffffffffffffffffffffffff1660008085846006811015156111a557fe5b6020020151815260200190815260200160002060000160009054906101000a900473ffffffffffffffffffffffffffffffffffffffff1673ffffffffffffffffffffffffffffffffffffffff1614151515611268576040517f08c379a000000000000000000000000000000000000000000000000000000000815260040180806020018281038252601f8152602001807f496e6578697374656e7420706172742075736564206f6e2070726f647563740081525060200191505060405180910390fd5b8080600101915050611173565b60006112a533888888602060405190810160405280600081525060206040519081016040528060008152506116da565b9050600073ffffffffffffffffffffffffffffffffffffffff166001600083815260200190815260200160002060000160009054906101000a900473ffffffffffffffffffffffffffffffffffffffff1673ffffffffffffffffffffffffffffffffffffffff16141515611381576040517f08c379a00000000000000000000000000000000000000000000000000000000081526004018080602001828103825260178152602001807f50726f6475637420494420616c7265616479207573656400000000000000000081525060200191505060405180910390fd5b611389611bca565b60a0604051908101604052803373ffffffffffffffffffffffffffffffffffffffff168152602001898152602001888152602001878152602001868152509050806001600084815260200190815260200160002060008201518160000160006101000a81548173ffffffffffffffffffffffffffffffffffffffff021916908373ffffffffffffffffffffffffffffffffffffffff1602179055506020820151816001019080519060200190611440929190611c17565b50604082015181600201908051906020019061145d929190611c17565b50606082015181600301908051906020019061147a929190611c17565b50608082015181600401906006611492929190611c97565b50905050819350505050949350505050565b6000806114b53388888888886116da565b9050600073ffffffffffffffffffffffffffffffffffffffff1660008083815260200190815260200160002060000160009054906101000a900473ffffffffffffffffffffffffffffffffffffffff1673ffffffffffffffffffffffffffffffffffffffff16141515611590576040517f08c379a00000000000000000000000000000000000000000000000000000000081526004018080602001828103825260148152602001807f5061727420494420616c7265616479207573656400000000000000000000000081525060200191505060405180910390fd5b611598611cd7565b60c0604051908101604052803373ffffffffffffffffffffffffffffffffffffffff1681526020018981526020018881526020018781526020018681526020018581525090508060008084815260200190815260200160002060008201518160000160006101000a81548173ffffffffffffffffffffffffffffffffffffffff021916908373ffffffffffffffffffffffffffffffffffffffff1602179055506020820151816001019080519060200190611654929190611c17565b506040820151816002019080519060200190611671929190611c17565b50606082015181600301908051906020019061168e929190611c17565b5060808201518160040190805190602001906116ab929190611c17565b5060a08201518160050190805190602001906116c8929190611c17565b50905050819250505095945050505050565b600080876c0100000000000000000000000002905060608790506060879050606087905060608790506060879050606081518351855187518951601460ff1601010101016040519080825280601f01601f1916602001820160405280156117505781602001600182028038833980820191505090505b5090506060819050600080905060008090505b601460ff168110156117f157898160148110151561177d57fe5b1a7f01000000000000000000000000000000000000000000000000000000000000000283838060010194508151811015156117b457fe5b9060200101907effffffffffffffffffffffffffffffffffffffffffffffffffffffffffffff1916908160001a9053508080600101915050611763565b600090505b88518110156118a957888181518110151561180d57fe5b9060200101517f010000000000000000000000000000000000000000000000000000000000000090047f010000000000000000000000000000000000000000000000000000000000000002838380600101945081518110151561186c57fe5b9060200101907effffffffffffffffffffffffffffffffffffffffffffffffffffffffffffff1916908160001a90535080806001019150506117f6565b600090505b87518110156119615787818151811015156118c557fe5b9060200101517f010000000000000000000000000000000000000000000000000000000000000090047f010000000000000000000000000000000000000000000000000000000000000002838380600101945081518110151561192457fe5b9060200101907effffffffffffffffffffffffffffffffffffffffffffffffffffffffffffff1916908160001a90535080806001019150506118ae565b600090505b8651811015611a1957868181518110151561197d57fe5b9060200101517f010000000000000000000000000000000000000000000000000000000000000090047f01000000000000000000000000000000000000000000000000000000000000000283838060010194508151811015156119dc57fe5b9060200101907effffffffffffffffffffffffffffffffffffffffffffffffffffffffffffff1916908160001a9053508080600101915050611966565b600090505b8551811015611ad1578581815181101515611a3557fe5b9060200101517f010000000000000000000000000000000000000000000000000000000000000090047f0100000000000000000000000000000000000000000000000000000000000000028383806001019450815181101515611a9457fe5b9060200101907effffffffffffffffffffffffffffffffffffffffffffffffffffffffffffff1916908160001a9053508080600101915050611a1e565b600090505b8451811015611b89578481815181101515611aed57fe5b9060200101517f010000000000000000000000000000000000000000000000000000000000000090047f0100000000000000000000000000000000000000000000000000000000000000028383806001019450815181101515611b4c57fe5b9060200101907effffffffffffffffffffffffffffffffffffffffffffffffffffffffffffff1916908160001a9053508080600101915050611ad6565b82805190602001209a50505050505050505050509695505050505050565b60c060405190810160405280600690602082028038833980820191505090505090565b61014060405190810160405280600073ffffffffffffffffffffffffffffffffffffffff168152602001606081526020016060815260200160608152602001611c11611d24565b81525090565b828054600181600116156101000203166002900490600052602060002090601f016020900481019282601f10611c5857805160ff1916838001178555611c86565b82800160010185558215611c86579182015b82811115611c85578251825591602001919060010190611c6a565b5b509050611c939190611d47565b5090565b8260068101928215611cc6579160200282015b82811115611cc5578251825591602001919060010190611caa565b5b509050611cd39190611d6c565b5090565b60c060405190810160405280600073ffffffffffffffffffffffffffffffffffffffff16815260200160608152602001606081526020016060815260200160608152602001606081525090565b60c060405190810160405280600690602082028038833980820191505090505090565b611d6991905b80821115611d65576000816000905550600101611d4d565b5090565b90565b611d8e91905b80821115611d8a576000816000905550600101611d72565b5090565b9056fea165627a7a72305820d517a2a4533ce2e3c630446a548442aaa16d30b5b440ff144c89a583481283f90029",
  "source": "pragma solidity >=0.4.21 <0.6.0;\n\ncontract ProductManagement {\n    struct Part{\n        address manufacturer;\n        string serial_number;\n        string part_type;\n        string creation_date;\n        string expiry_date;\n        string product_price;\n    }\n\n    struct Product{\n        address manufacturer;\n        string serial_number;\n        string product_type;\n        string creation_date;\n        bytes32[6] parts;\n    }\n\n    mapping(bytes32 => Part) public parts;\n    mapping(bytes32 => Product) public products;\n\n    constructor() public {\n    }\n\n    function concatenateInfoAndHash(address a1, string memory s1, string memory s2, string memory s3, string memory s4, string memory s5) private returns (bytes32){\n        //First, get all values as bytes\n        bytes20 b_a1 = bytes20(a1);\n        bytes memory b_s1 = bytes(s1);\n        bytes memory b_s2 = bytes(s2);\n        bytes memory b_s3 = bytes(s3);\n        bytes memory b_s4 = bytes(s4);\n        bytes memory b_s5 = bytes(s5);\n        //Then calculate and reserve a space for the full string\n        string memory s_full = new string(b_a1.length + b_s1.length + b_s2.length + b_s3.length + b_s4.length + b_s5.length);\n        bytes memory b_full = bytes(s_full);\n        uint j = 0;\n        uint i;\n        for(i = 0; i < b_a1.length; i++){\n            b_full[j++] = b_a1[i];\n        }\n        for(i = 0; i < b_s1.length; i++){\n            b_full[j++] = b_s1[i];\n        }\n        for(i = 0; i < b_s2.length; i++){\n            b_full[j++] = b_s2[i];\n        }\n        for(i = 0; i < b_s3.length; i++){\n            b_full[j++] = b_s3[i];\n        }\n        for(i = 0; i < b_s4.length; i++){\n            b_full[j++] = b_s4[i];\n        }\n        for(i = 0; i < b_s5.length; i++){\n            b_full[j++] = b_s5[i];\n        }\n\n        //Hash the result and return\n        return keccak256(b_full);\n    }\n\n    function buildPart(string memory serial_number, string memory part_type, string memory creation_date, string memory expiry_date, string memory product_price) public returns (bytes32){\n        //Create hash for data and check if it exists. If it doesn't, create the part and return the ID to the user\n        bytes32 part_hash = concatenateInfoAndHash(msg.sender, serial_number, part_type, creation_date, expiry_date, product_price);\n        \n        require(parts[part_hash].manufacturer == address(0), \"Part ID already used\");\n\n        Part memory new_part = Part(msg.sender, serial_number, part_type, creation_date, expiry_date, product_price);\n        parts[part_hash] = new_part;\n        return part_hash;\n    }\n\n    function buildProduct(string memory serial_number, string memory product_type, string memory creation_date, bytes32[6] memory part_array) public returns (bytes32){\n        //Check if all the parts exist, hash values and add to product mapping.\n        uint i;\n        for(i = 0;i < part_array.length; i++){\n            require(parts[part_array[i]].manufacturer != address(0), \"Inexistent part used on product\");\n        }\n\n        //Create hash for data and check if exists. If it doesn't, create the part and return the ID to the user\n        bytes32 product_hash = concatenateInfoAndHash(msg.sender, serial_number, product_type, creation_date, \"\",\"\");\n        \n        require(products[product_hash].manufacturer == address(0), \"Product ID already used\");\n\n        Product memory new_product = Product(msg.sender, serial_number, product_type, creation_date, part_array);\n        products[product_hash] = new_product;\n        return product_hash;\n    }\n\n    function getParts(bytes32 product_hash) public returns (bytes32[6] memory){\n        //The automatic getter does not return arrays, so lets create a function for that\n        require(products[product_hash].manufacturer != address(0), \"Product inexistent\");\n        return products[product_hash].parts;\n    }\n}\n",
  "sourcePath": "/home/praseetha/project/pro/contracts/ProductManagement.sol",
  "compiler": {
    "name": "solc",
    "version": "0.5.0+commit.1d4f565a.Emscripten.clang"
  },
  "schemaVersion": "3.0.8",
  "updatedAt": "2019-05-21T09:37:27.087Z",
  "devdoc": {
    "methods": {}
  },
  "userdoc": {
    "methods": {}
  }
}